:020000040800F2
:10000000D8970024690300088F1E00084F1D0008C0
:100010008D1E0008E104000873270008000000009E
:10002000000000000000000000000000AD02000819
:10003000A9050008000000000103000821200008B5
:100040008303000883030008830300088303000878
:100050008303000883030008830300088303000868
:100060008303000883030008830300088303000858
:100070008303000883030008830300088303000848
:100080008303000883030008830300088303000838
:100090008303000883030008830300088303000828
:1000A0008303000883030008830300088303000818
:1000B0008303000883030008830300088303000808
:1000C00083030008830300088303000883030008F8
:1000D00083030008830300088303000883030008E8
:1000E0008303000883030008000000008303000866
:1000F00083030008830300088303000883030008C8
:1001000083030008830300088303000883030008B7
:1001100083030008830300088303000883030008A7
:100120008303000883030008830300088303000897
:100130008303000883030008830300088303000887
:1001400000000000000000000000000000000000AF
:100150008303000883030008830300088303000867
:100160008303000883030008830300088303000857
:1001700083030008830300088303000800000000D5
:100180008303000883030008830300088303000837
:100190008303000883030008830300088303000827
:1001A0008303000883030008830300088303000817
:1001B0008303000883030008830300088303000807
:1001C00083030008830300088303000883030008F7
:1001D00083030008830300088303000883030008E7
:1001E00083030008830300088303000883030008D7
:1001F00083030008830300088303000883030008C7
:1002000083030008830300088303000883030008B6
:1002100083030008830300088303000883030008A6
:100220008303000883030008830300080000000024
:100230008303000883030008000000008303000814
:100240008303000883030008830300088303000876
:100250008303000883030008830300088303000866
:100260008303000883030008830300088303000856
:1002700083030008830300088303000800000000D4
:100280008303000800000000830300080000000052
:100290000000000083030008DFF80CD000F0DCF859
:1002A00000480047A5290008D89700242B4B19685F
:1002B0000868B0E8F04F80F30988BFF36F8F4FF004
:1002C000000080F3118870470000000006480068B5
:1002D000006880F3088862B661B6BFF34F8FBFF342
:1002E0006F8F00DF00BF00BF08ED00E0DFF80C00FB
:1002F000016841F470010160704700BF88ED00E0C3
:10030000EFF30980BFF36F8F144B1A681EF0100FC4
:1003100008BF20ED108A20E9F04F106008B44FF0BC
:10032000500072B680F31188BFF34F8FBFF36F8F09
:1003300062B603F00BF84FF0000080F3118808BCA0
:1003400019680868B0E8F04F1EF0100F08BFB0EC55
:10035000108A80F30988BFF36F8F70471000002464
:10036000EFF30580704700000648804706480047C5
:10037000FEE7FEE7FEE7FEE7FEE7FEE7FEE7FEE755
:10038000FEE7FEE7C1200008990200082DE9F05FB2
:100390000546002092469B468846064681464024F4
:1003A0001BE0284641464746224600F045F85346A2
:1003B0005A46C01A914110D311461846224600F001
:1003C0002CF82D1A67EB01084F4622460120002128
:1003D00000F023F817EB00094E41201EA4F10104A0
:1003E000DFDC484631462A464346BDE8F09F30B53B
:1003F0000B46014600202022012409E021FA02F5E3
:100400009D4205D303FA02F5491B04FA02F528447C
:10041000151EA2F10102F1DC30BD202A04DB203AD6
:1004200000FA02F1002070479140C2F1200320FA47
:1004300003F3194390407047202A04DB203A21FA45
:1004400002F00021704721FA02F3D040C2F12002ED
:100450009140084319467047064C074D06E0E06896
:1004600040F0010394E8070098471034AC42F6D3FB
:10047000FFF716FF60370008803700081CB502F050
:100480009BFD0C49022000230202CDE900010D482A
:1004900009A103F029F8012802D10BA002F06AF9A2
:1004A0000448001F006802F093FEBDE81C4002F003
:1004B000C3BD00000C0000244C45445F5461736BC5
:1004C00000000000291E0008B4B4BDA84C45445FDC
:1004D0005461736BC8CECEF1B3C9B9A6210D0A0021
:1004E000FEE700002C4870B5B6B0016841F001018C
:1004F0000160016801F001013491016841F00101DE
:100500000160006800251E95012400F001000094A0
:100510003490684600F0B8FA1F481030016841F086
:100520001001016000682FA91C4E00F010003490EB
:1005300060022F900220CDE930040724CDE9320477
:10054000304600F033F84FF4806033942FA92F9099
:10055000304600F02BF8134C114820604FF4E13086
:10056000C4E901050C20E560C4E90450A5612046FA
:10057000E5612562656301F05BFB00220621252011
:1005800000F036F9252000F025F92068016841F0D7
:100590002001016036B070BDE044025800000258EE
:1005A0000010014074000024704700002DE9F84F4E
:1005B0006C4C00224FF0B04A4FF0010B4FF0030E8D
:1005C0004FF00F090B680BFA02F73B40BB4270D1AA
:1005D0004D68022D01D0122D12D1D50800EB850CEB
:1005E000DCF820605507ED0E09FA05F826EA080642
:1005F000D1F8108008FA05F848EA0608CCF82080FF
:10060000D0F80080560091F804C00EFA06F50CF000
:10061000030C28EA05080CFA06FC4CEA080CC0F8A2
:1006200000C0D1F804C0BCF1010F08D0BCF1020F2A
:1006300005D0BCF1110F02D0BCF1120F16D1D0F8C9
:1006400008C0D1F80C802CEA050C08FA06F848EA34
:100650000C08C0F80880D0F804C02CEA070C0F7909
:10066000C7F30017974047EA0C074760C768AF43D6
:100670008D68B5403D43C5604D68ED006BD53A4D82
:100680002E6846F002062E602D6822F0030606F161
:10069000B04605F002050095D6F808C495072F0F5F
:1006A00009FA07F52CEA050C304DA84202D10025C5
:1006B0002EE050E02E4DA84201D1012528E02D4D1D
:1006C000A84201D1022523E02B4DA84201D10325E8
:1006D0001EE02A4DA84201D1042519E0284DA84268
:1006E00001D1052514E0274DA84201D106250FE0D0
:1006F000254DA84201D107250AE0244DA84201D189
:10070000082505E0224DA84201D1092500E00A256F
:10071000BD4045EA0C05C6F8085425684E689D435F
:10072000F60300D51D43256065684E689D43B603FA
:1007300000D51D436560DAF8005056464F689D436A
:10074000FF0200D51D43356075684F689D43BF02A9
:1007500000D51D437560521C102AFFF433AFBDE86D
:10076000F88F000080000058F4440258000002583E
:100770000004025800080258000C025800100258E9
:100780000014025800180258001C02580020025899
:1007900000240258044840680449B0FBF1F04FF4CB
:1007A0007A71484370470000001000E00084D717BA
:1007B0000648016841F080710160054800214160F0
:1007C000016841F00101016000207047FCED00E08C
:1007D000001000E0002809DB012100F01F02914019
:1007E0004009800000F1E020C0F8001170470000CF
:1007F0000E4BF0B41B68C3F30223C3F10704042CAF
:1008000000D904241D1D072D01D2002300E0DB1EAA
:10081000012606FA04F56D1E0D409D409E40761E91
:10082000164045EA0601F0BC01F0B4BF0CED00E053
:1008300010B500F021FF084909684FF4807292FA60
:10084000A2F201F47061B2FA82F2D140034A515C23
:10085000C8400349086010BD1844025838370008E2
:100860000000002410B500F0C1FE074909681022FD
:1008700092FAA2F201F07001B2FA82F2D140034A78
:10088000515CC84010BD00002044025838370008B1
:10089000364930B50A68096812F00302344BC1F3D7
:1008A00005311B68334C03F010032468DFED320A76
:1008B000B7EE001AC4F3CC0414FB03F300EE103AB5
:1008C0002E4BB8EE400A07D02D4C012A01D0022A47
:1008D0004AD0B4FBF1F10BE0244C283C2268950689
:1008E000284A03D52468C4F3C104E240B2FBF1F105
:1008F00001EE901A1968B8EE612AC1F3080101EE01
:10090000901A1968F8EE611A40EE201A31EE810A49
:1009100022EE000AC1F34621491C00EE901AF8EEBF
:10092000600A80EE201AFCEEC10AC0ED000A1968C8
:10093000C1F30641491C00EE901AF8EE600A80EE01
:10094000201AFCEEC10AC0ED010A1968C1F3066164
:10095000491C00EE901AF8EE600A80EE201ABCEEF8
:10096000C10A80ED020A30BD074ABFE72844025899
:100970002C4402583C4402580000003938440258C4
:1009800000093D000090D00340787D01364930B524
:100990000A68096812F00302344BC1F305511B6861
:1009A000334C03F480732468DFED320AB7EE001A8B
:1009B000C4F3CC0414FB03F300EE103A2E4BB8EE54
:1009C000400A07D02D4C012A01D0022A4AD0B4FB9C
:1009D000F1F10BE0244C283C22689506284A03D507
:1009E0002468C4F3C104E240B2FBF1F101EE901AB5
:1009F0001968B8EE612AC1F3080101EE901A19686E
:100A0000F8EE611A40EE201A31EE810A22EE000A59
:100A1000C1F34621491C00EE901AF8EE600A80EE00
:100A2000201AFCEEC10AC0ED000A1968C1F30641A4
:100A3000491C00EE901AF8EE600A80EE201AFCEED7
:100A4000C10AC0ED010A1968C1F30661491C00EE34
:100A5000901AF8EE600A80EE201ABCEEC10A80ED12
:100A6000020A30BD074ABFE7284402582C44025806
:100A700044440258000000394044025800093D0037
:100A80000090D00340787D012DE9F84F04460068BE
:100A90000025FC4FDFF8F0832E46010104F124000D
:100AA000009023D5606E50B1B0F5801F0CD0B0F52A
:100AB000001F11D0B0F5401F23D0012515E0386884
:100AC00040F4003038601CE0386840F400103860B2
:100AD000201D01F0DDF906E0386840F080703860D4
:100AE000009801F039FA05000BD02E462088C00589
:100AF00029D5606D052824D2DFE800F00C111921FA
:100B00002100D8F80010626E21F440111143C8F89A
:100B10000010EBE7386840F4003038600FE03868C8
:100B200040F400203860201D01F0B2F906E038687A
:100B300040F480003860009801F00EFA05466DB16F
:100B400000E001252E43208880052ED5A06D802849
:100B500021D00CDC90B140280ED114E0D8F8001060
:100B6000626D21F007011143C8F80010EBE7C028BF
:100B700019D0B0F5807F16D0012515E0386840F413
:100B8000003038600FE0386840F400203860201DE5
:100B900001F07EF906E0386840F480003860009883
:100BA00001F0DAF9054685B12E432088DFF8DC92A2
:100BB000400532D5D4F8A400B0F5800F23D00DDC69
:100BC000A0B1B0F5001F0FD115E0D8F80010A26D4C
:100BD00021F4E0711143C8F80010E6E7B0F5C00F4A
:100BE00019D0B0F5000F16D0012515E0386840F493
:100BF000003038600FE0386840F400203860201D75
:100C000001F046F906E0386840F48000386000984A
:100C100001F0A2F9054675B12E432088000533D5B1
:100C2000D4F8A800B0F1007F24D00EDCA8B1B0F158
:100C3000807F10D116E0D9F80010D4F8A42021F458
:100C400060011143C9F80010E7E7B0F1407F19D007
:100C5000B0F1806F16D0012515E0386840F40030FF
:100C600038600FE0386840F400203860201D01F043
:100C70000FF906E0386840F480003860009801F011
:100C80006BF905466DB12E432068800122D5A06C1A
:100C9000F0B110280FD0202812D0302818D001250C
:100CA00017E0D9F80010D4F8A82021F0E061114332
:100CB000C9F80010E8E7386840F40030386007E011
:100CC000386840F400103860201D01F0E1F8054656
:100CD0006DB12E432088C00431D5E06DB0F5005FC2
:100CE00023D00DDCA0B1B0F5805F0FD115E06648D0
:100CF000001F0168A26C21F0300111430160E9E797
:100D0000B0F5405F19D0B0F5804F16D0012515E041
:100D1000386840F4003038600FE0386840F4002054
:100D20003860201D01F0B4F806E0386840F4800017
:100D30003860009801F010F9054685B12E432088EF
:100D400080042FD5206EB0F5403F29D010DC38B399
:100D5000B0F5803F14D0B0F5003F0FD118E0D8F8BF
:100D60000010E26D21F4E0411143C8F80010E6E7FD
:100D7000B0F5802F14D0B0F5A02F11D0012510E0D0
:100D8000386840F480103860201D01F081F806E0DA
:100D9000386840F400003860009801F0DDF805463E
:100DA0008DB12E432088400430D5D4F8AC00B0F18A
:100DB000405F29D010DC38B3B0F1805F14D0B0F1BF
:100DC000005F0FD118E0D8F80010226E21F4E02166
:100DD0001143C8F80010E5E7B0F1804F14D0B0F12E
:100DE000A04F11D0012510E0386840F48010386021
:100DF000201D01F04DF806E0386840F4000038602E
:100E0000009801F0A9F805466DB12E432088000432
:100E100022D5E06EF0B1B0F1805F0ED0B0F1005F8E
:100E200010D0012517E0D9F80010D4F8AC2021F03B
:100E3000E0411143C9F80010E8E7386840F4003099
:100E4000386007E0386840F480103860201D01F0F9
:100E50001FF805466DB12E432068C00127D5606C90
:100E600018B3012814D0022817D003281DD001255B
:100E70001CE0D8F80010E26E21F040511143C8F890
:100E80000010E9E72C4402585044025858440258D4
:100E9000386840F40030386007E0386840F40010EB
:100EA0003860201D00F0F4FF054675B12E43206820
:100EB000DFF8E8B340024FD5F948016841F480718A
:100EC0000160FFF767FC82460EE0F4483C300168A1
:100ED000626C21F0030111430160E8E7FFF75AFC5F
:100EE000A0EB0A0064282ED8ED480068C005F5D5AF
:100EF00055BBEA4860300068B4F8B01000F44070A8
:100F000001F4407188420DD0E44860300168026805
:100F100021F4407142F480320260026822F480328F
:100F200002600160D4F8B000B0F5807F23D1FFF7F4
:100F300031FC824609E0FFF72DFCA0EB0A0141F2EB
:100F40008830814201D9032505E0D448603000682B
:100F50008007F0D57DB12E432078DFF848A3C00785
:100F600043D0A06F18283ED026DC98B3082829D09B
:100F7000102825D12FE0D4F8B000C0F301210329B7
:100F80000FD0DBF8001021F47C51CBF80010C548DD
:100F90001C300168B4F8B020C2F30B0211430160A9
:100FA000DAE7DBF80020C04B22F47C5203EA101091
:100FB0000243CBF80020EAE7202814D0282812D0DA
:100FC000012511E0386840F480103860201D00F0E1
:100FD0005FFF07E007E0386840F4000038600098E1
:100FE00000F0BAFF05465DB12E432078800724D576
:100FF000606F06281FD2DFE800F01C0C141C1C1CBC
:10100000DAF80010A26F21F038011143CAF800107D
:10101000EBE7386840F480103860201D00F038FF9E
:1010200006E0386840F400003860009800F094FF53
:10103000054675B100E001252E432078400725D5EF
:10104000D4F8900006281FD2DFE800F01C0C141C16
:101050001C1CDAF80010626F21F007011143CAF876
:101060000010EAE7386840F480103860201D00F076
:101070000FFF06E0386840F400003860009800F088
:101080006BFF05469DB100E001252E4320788006C8
:1010900031D5D4F88C00B0F1405F2AD011DC40B3D8
:1010A000B0F1805F15D0B0F1005F10D119E0D9F830
:1010B0000010D4F8902021F007011143C9F8001066
:1010C000E4E7B0F1804F14D0B0F1A04F11D001256A
:1010D00010E0386840F400203860201D00F0D8FE91
:1010E00006E0386840F080703860009800F034FF07
:1010F00005468DB12E432078400631D5D4F89800AE
:10110000B0F5406F2AD011DC40B3B0F5806F15D038
:10111000B0F5006F10D119E0DAF80010D4F88C2087
:1011200021F0E0411143CAF80010E4E7B0F5805F18
:1011300014D0B0F5A05F11D0012510E0386840F45C
:1011400000203860201D00F0A3FE06E0386840F063
:1011500080703860009800F0FFFE05468DB12E4388
:101160002078000631D5D4F89C00B0F5C04F2AD0C5
:1011700011DC40B3B0F5005F15D0B0F5804F10D151
:1011800019E0D9F80010D4F8982021F4E051114367
:10119000C9F80010E4E7B0F5004F14D0B0F5204FC7
:1011A00011D0012510E0386840F400203860201D7F
:1011B00000F06EFE06E0386840F0807038600098FD
:1011C00000F0CAFE054665B32E43207800070BD514
:1011D000D4F88000B0F5805F2DD0DAF8002022F43A
:1011E00040520243CAF800202078C0060BD5D4F83C
:1011F0009400B0F5807F26D0D9F8002022F4407208
:101200000243C9F800202068000336D5D4F8A000B6
:1012100008B3B0F5803F26D0B0F5003F2BD00125B4
:101220002AE0D9F80010D4F89C2021F46041114341
:10123000C9F80010C9E7009800F08EFE386840F049
:1012400080703860D0E7009800F086FE386840F083
:1012500080703860D7E7386840F400203860201D7F
:1012600000F016FE06E0386840F0807038600098A4
:1012700000F072FE0546CDB12E43206840032ED506
:10128000D4F88400B0F5801F1AD0B0F5001F1CD030
:10129000B0F5401F21D0012520E000001044025885
:1012A0000048025854440258CFFFFF00D9F80010FC
:1012B000D4F8A02021F440311143C9F80010DCE734
:1012C000386840F40030386007E0386840F40000C7
:1012D0003860009800F040FE054655B12E43206866
:1012E000C0031FD5E06C70B1B0F5803F10D0012570
:1012F00017E0DAF80010D4F8842021F440111143EB
:10130000CAF80010EBE7386840F40030386007E0B6
:10131000386840F400103860201D00F0B9FD054623
:10132000DDB12E432068800007D5386840F080701A
:101330003860009800F010FE0643206880031AD53C
:10134000E06FB0B1B0F5807F0FD0B0F5007F10D066
:10135000B0F5407F0DD001250CE02D480168E26C0E
:1013600021F4803111430160DCE7386840F400303B
:101370003860EDB32E432068C00207D5D8F80010BE
:10138000226F21F000411143C8F800102068C0000E
:1013900008D5DBF80010D4F8B42021F480411143C3
:1013A000CBF800102068800207D5D8F80010A26E94
:1013B00021F080711143C8F80010206840000CD55E
:1013C000DBF8001021F40041CBF80010DBF800102E
:1013D000D4F8B8201143CBF800102068002806DAB2
:1013E0000B480168226D21F040511143016000E07B
:1013F00003E05EB10120BDE8F88FDAF80010E26F7B
:1014000021F440711143CAF80010B4E70020F2E75C
:101410004C4402582DE9F047DFF8BC9104460E46D3
:10142000D9F8000000F00700B0420CD2D9F8001043
:1014300021F007013143C9F80010D9F8000000F08D
:101440000700B0427ED12078DFF89081800707D571
:10145000D8F80010E26821F00F011143C8F800101D
:101460002078C00762D0D8F80010A26821F470611B
:101470001143C8F8001059496068183902281CD077
:1014800003281DD0096801281DD04907002960DA0A
:10149000524F083F396821F0070101433960FFF7D7
:1014A00079F90546606841F28831022813D0032893
:1014B0001ED001288A4627D034E009688903E5E771
:1014C00009688901E2E7C905E0E7FFF763F9411B15
:1014D000514501D923E08A463868C0F3C20002288A
:1014E000F3D123E0FFF756F9411B514501D916E02E
:1014F0008A463868C0F3C2000328F3D116E0FFF72C
:1015000049F9411B51450AD83868C0F3C200012887
:10151000F5D10BE0FFF73EF9411B514502D90320FD
:10152000BDE8F087386810F0380FF3D1D9F8001013
:10153000484601F00701B1420DD9016821F00701C9
:10154000314300E005E00160006800F00700B042B0
:1015500001D00120E4E72078400707D5D8F8001033
:10156000226921F070011143C8F8001020780107AA
:101570001B4805D50168626921F0700111430160C3
:101580002178C90605D50168A26921F4E0611143FB
:1015900001602078800607D51149091D0868E269B5
:1015A00020F070001043086000F066F8D8F80010D2
:1015B0004FF4807292FAA2F201F47061B2FA82F2F0
:1015C000D140084A515CC840074908600020FFF735
:1015D000EFF80020A4E70000002000521844025851
:1015E0001C440258383700080000002410B5FFF7EB
:1015F0001FF908490968012292FAA2F201F00F01CD
:10160000B2FA82F2D140044A515CC84003490860F2
:1016100010BD0000184402583837000804000024A8
:1016200010B5FFF7E3FF07490968102292FAA2F20A
:1016300001F07001B2FA82F2D140034A515CC84015
:1016400010BD00001C4402583837000810B5FFF7E1
:10165000CDFF074909684FF4807292FAA2F201F4B3
:10166000E061B2FA82F2D140024A515CC84010BD3A
:101670001C440258383700083548F0B50068364D2C
:1016800010F03801334809D00411082904D0334E32
:1016900010290BD018290BD02046F0BD29688906E7
:1016A000FBD52968C1F3C101C840F0BD3046F0BD8B
:1016B000274918310A68096812F00302284BC1F360
:1016C00005111B68274F03F001033F68DFED260A71
:1016D000B7EE001AC7F3CC0717FB03F300EE103A7E
:1016E000224BB8EE400A06D0012A01D0022A2BD0A4
:1016F000B4FBF1F008E02A68920603D52A68C2F329
:10170000C102D040B0FBF1F001EE900A1868B8EECB
:10171000612AC0F3080001EE900A1868F8EE611A19
:1017200040EE201A31EE810A22EE000AC0F3462074
:10173000401C00EE900AF8EE600A80EE201ABCEE23
:10174000C10A10EE100AF0BDB6FBF1F0DCE70000B4
:10175000104402580090D0030044025840787D01A4
:101760002C440258344402580000003930440258D6
:101770002DE9F04704460078DFF8F883DFF8F893A6
:10178000FE4DC0074CD0D8F800104046C1F3C2014E
:1017900002291AD00068C0F3C200032805D1D9F885
:1017A000000000F0030002280FD06068B0F5803F11
:1017B00012D010B1B0F5A02F18D0286820F48030D6
:1017C0002860286820F4802009E02868800327D555
:1017D000606800287BD023E0286840F480302860CF
:1017E000606888B1FEF7D6FF064609E0286840F435
:1017F00080202860F0E7FEF7CDFF801B642867D8C3
:1018000028688003F7D50BE0FEF7C4FF064604E026
:10181000FEF7C0FF801B6428F1D828688003F7D446
:101820002078D74F800767D5D8F8001040464FF48E
:101830007C3A11F0380F13D00068C0F3C2000328BF
:1018400003D1D9F8000080070AD0E068F0B3296816
:1018500021F0190101432960FEF79CFF064628E0AC
:101860002868400702D5E0680028B3D02868E168FE
:1018700020F0190008432860FEF78CFF064604E0BC
:10188000FEF788FF801B0228B9D828684007F7D5E3
:1018900038689AFAAAF22169B2FA82F220F47C300E
:1018A00091400843386027E0FEF774FF801B022850
:1018B000A5D828684007F7D53868216920F47C321C
:1018C0009AFAAAF0B0FA80F0814002E004E0B9E0B0
:1018D00002E10A433A600FE0286820F00100286026
:1018E000FEF758FF064604E0FEF754FF801B02286F
:1018F00085D828684007F7D42078C00648D5D8F89E
:10190000001040464FF0F84AC1F3C201012915D03A
:101910000068C0F3C200032805D1D9F8000000F028
:10192000030001280AD0E0690028286821D040F08F
:1019300080002860FEF72EFF06460BE02868C005F1
:101940000BD5E06980287DD107E0FEF723FF801BDF
:10195000022899D82868C005F7D538689AFAAAF2FB
:10196000216AB2FA82F220F0F840914008433860D0
:101970000EE020F080002860FEF70CFF064604E031
:10198000FEF708FF801B022892D82868C005F7D40C
:101990002078000724D5784F60694C3700283868D4
:1019A0000FD040F001003860FEF7F4FE064604E078
:1019B000FEF7F0FE801B02289AD838688007F7D51A
:1019C0000EE020F001003860FEF7E4FE064604E079
:1019D000FEF7E0FE801B02287ED838688007F7D427
:1019E0002078800622D5A069002828680FD040F40E
:1019F00080502860FEF7CEFE064604E0FEF7CAFEE1
:101A0000801B022868D828688004F7D50EE020F4EF
:101A100080502860FEF7BEFE064604E0FEF7BAFEE0
:101A2000801B022858D828688004F7D42078400703
:101A300047D5544F386840F480703860FEF7AAFEEE
:101A4000064605E0C4E0FEF7A5FE801B642843D8E7
:101A50003868C005F7D5484FA068483701280AD034
:101A600008B1052813D0386820F0010038603868C4
:101A700020F0040002E0386840F001003860A068FF
:101A800041F2883A88B1FEF785FE064609E03868DB
:101A900040F004003860EEE7FEF77CFE811B514504
:101AA0001AD838688007F7D50BE0FEF773FE0646B4
:101AB00004E0FEF76FFE811B51450DD838688007A2
:101AC000F7D4606AF0B3D8F80010C1F3C20103295B
:101AD0007ED00228286800E07BE020F0807028603B
:101AE00003D0FEF757FE044687E0FEF753FE064696
:101AF00004E0FEF74FFE801B02287BD82868800197
:101B0000F7D4D9F8001040F2F3329143E26A41EA87
:101B10000211A26A1143C9F8001094F834004FF47E
:101B2000FE024002A0F5007081B2208E401EC0F37C
:101B300008000143208F401E02EA0040014394F850
:101B40003C0000E05CE0401E120202EA006001433B
:101B5000094808300160031D19684FF6F872A06C3F
:101B6000914392FAA2F2B2FA82F2904001431960D4
:101B7000014809E010440258284402580044025821
:101B80000444025800480258001D0168226C21F0EC
:101B90000C01114301600168626C21F002011143E4
:101BA0000160016841F480310160016841F4003155
:101BB0000160016841F480210160016841F0010188
:101BC0000160286840F080702860FEF7E3FD01E0C6
:101BD00018E00FE0044604E0FEF7DCFD001B0228DD
:101BE00008D828688001F7D50AE0FEF7D3FD001B6E
:101BF000022802D90320BDE8F08728688001F4D4C8
:101C00000020F8E70120F6E7401EB0F1807F10B514
:101C100001D3012010BD4FF0E02460610F21601757
:101C200000F0B8FD0020A06107202061002010BD59
:101C300010B5040003D094F8790010B107E001203A
:101C400010BD002084F87800204600F026F82420FB
:101C500084F879002068016821F0010101602046C4
:101C600000F002FB0128EBD0606B10B1204600F0C1
:101C700069FA2068416821F49041416020688168D8
:101C800021F02A0181602068016841F001010160B2
:101C90002046BDE8104000F0B9BA70472DE9F8437E
:101CA000044690F879001E4617460D4620284CD170
:101CB000C5B1BFB194F87800012846D0012084F85E
:101CC00078004FF00008C4F87C80212084F8790067
:101CD0006034FEF75FFD278081466780603C4FF4EB
:101CE000805718E00120BDE8F883B4F86200401E78
:101CF000A4F8620000224B4680212046009600F0A6
:101D000007FDA0B9A068B84201D1206988B115F8D3
:101D1000010B21680885B4F862000028E5D1002293
:101D20004B4640212046009600F0F2FC30B10320E3
:101D3000D9E735F8020BC0F30800EAE7202084F861
:101D40007900002084F87880CDE70220CBE7FEE719
:101D5000124800B587B0016841F0010101600168D7
:101D600001F001010591016841F004010160006882
:101D7000694600F0040005900120009000200190C9
:101D800002900748FEF712FC4FF4005000900548FF
:101D90006946FEF70BFC07B000BD0000E0440258A6
:101DA00000000258000802581C48F0B5016887B0CE
:101DB00041F002010160016801F002010591016832
:101DC00041F002010160016801F002010591016822
:101DD00041F001010160006801240225104E00F06D
:101DE0000100009469460194CDE902450590304612
:101DF000FEF7DCFB694630460095FEF7D7FB094F3E
:101E00000826694600963846FEF7D0FB044818308D
:101E1000048005803E8307B0F0BD0000E044025816
:101E20000004025800000258094E01244FF4FA75CC
:101E3000B71E3480284601F091F906A000F09AFC04
:101E40003C80284601F08AF909A000F093FCF0E7F5
:101E50001A0402584C45445F5461736B2052756EEE
:101E60006E696E672C4C4544315F4F4E0D0A000081
:101E70004C45445F5461736B2052756E6E696E679A
:101E80002C4C4544315F4F46460D0A00FEE7704733
:101E90002DE9F0412F4F04464FF000083868C04349
:101EA000800709D02B4D283D286820F080602860ED
:101EB000FEF770FC064607E00120BDE8F081FEF762
:101EC00069FC801B02283ED828680001F7D43868D6
:101ED000216820F47C3040EA01303860207A4FF4E9
:101EE000FE02A1884002491EA0F5007080B2C1F335
:101EF00008010843A189491E02EA01410843217CE7
:101F00001202491E02EA01610843124910310860B9
:101F10001048001D0168626921F0C0011143016091
:101F20000168A26921F0200111430160286840F096
:101F300080602860FEF72EFC044606E0FEF72AFCCF
:101F4000001B022801D90320B7E728680001F5D556
:101F50004046B2E7284402582DE9F0412F4F04468D
:101F60004FF000083868C043800709D02B4D283D4A
:101F7000286820F080502860FEF70CFC064607E039
:101F80000120BDE8F081FEF705FC801B02283ED849
:101F900028688000F7D43868218820F07C7040EAF7
:101FA00001503860207A4FF4FE02A1884002491E99
:101FB000A0F5007080B2C1F308010843A189491E51
:101FC00002EA01410843217C1202491E02EA016132
:101FD00008431249183108601048001D0168626901
:101FE00021F44061114301600168A26921F400718C
:101FF00011430160286840F080502860FEF7CAFB5A
:10200000044606E0FEF7C6FB001B022801D90320A8
:10201000B7E728688000F5D54046B2E72844025863
:1020200010B501F08DFA012803D0BDE8104001F091
:1020300043BA10BD214830B59DB0016821F00401BC
:1020400001601E4800240C30016841F440410160E9
:10205000016801F440411B9101688904FCD501200D
:102060000090052103940004019002200794CDE91B
:102070000A01A0210990CDE90C1008250F90042039
:102080000E90CDE910546846FFF772FB00B1FEE7F1
:1020900014A93F201390032081E8310040201790BD
:1020A0001A900101CDE91801042113A8FFF7B2F934
:1020B000002800D0FEE71DB030BD00000C480258DB
:1020C0001C48016841F4700101601B49086840F038
:1020D00001000860184A0020103210600A68174B8F
:1020E0001A400A60144A18321060121D1060121D46
:1020F0001060114A28321060121D1060121D10600D
:10210000121D1060121D1060121D1060121D106053
:10211000121D10600A6822F480220A6006496031AC
:10212000086001200649C1F80801C006014980394C
:102130000860704788ED00E0004402587FEDF6EA41
:102140000080005190F83410C90706D001684A6831
:10215000836B22F400321A434A6090F834108907E6
:1021600006D501684A68C36B22F480321A434A607C
:1021700090F83410490706D501684A68036C22F4C8
:1021800080221A434A6090F83410090706D5016886
:102190004A68436C22F400421A434A6090F83410B3
:1021A000C90606D501688A68836C22F480521A43F6
:1021B0008A6090F83410890606D501688A68C36C75
:1021C00022F400521A438A6090F83410490611D55F
:1021D00001684A68036D22F480121A434A60016D57
:1021E000B1F5801F06D101684A68436D22F4C00230
:1021F0001A434A6090F83410090606D501684A6807
:10220000806D22F4002202434A607047F8B5002531
:102210000446C567FEF7BEFA0746206800686FF0FF
:102220007E46000708D500223B464FF400112046A9
:10223000009600F06DFA60B92068006840070AD582
:1022400000223B464FF480012046009600F060FAE1
:1022500008B10320F8BD202084F8790084F87A00C2
:10226000002084F87850F8BD2DE9F04F044600684E
:102270008025FD4B0021D4F810C087B0A6680F461A
:10228000D4F81C8046EA0C06D4F814C0A26A4CEAC2
:10229000080C46EA0C0632430668DFF8D0C306EAAB
:1022A0000C061643066020684268E66822F4405235
:1022B000324342602268A0699A4201D0266A3043C4
:1022C000A66AB6F1005F04D1D4E90B6C46EA0C06AD
:1022D00030439668DFF898C306EA0C06064396601A
:1022E0002068C26A666A22F00F023243C262E14E7F
:1022F0002068E14AB04210D1126802F03802182A70
:1023000074D005DCCAB3082A7AD0102A47D179E004
:10231000202A7BD0282A7CD17AE0D84EB04209D13D
:10232000126802F00702062A73D2DFE802F053694E
:102330006B6D6F71D24EB04209D1126802F0070284
:10234000062A66D2DFE802F0465C5E606264CD4E2B
:10235000B04209D1126802F00702062A59D2DFE81A
:1023600002F0394F51535557C74EB0420BD1126846
:1023700002F00702062A4CD200E00EE0DFE802F08D
:102380002A4042444648C14EB04209D1126802F088
:102390003802182A38D0BBDCB4E74FF0010538E02A
:1023A000BB4EB04209D1126802F00702062A30D2B1
:1023B000DFE802F01026282A2C2EB64EB0420BD1B0
:1023C000126802F00702062A23D2DFE802F003199E
:1023D0001B1D1F2100251CE098421AD1A64A121D80
:1023E000126802F00702062A13D202E00CE007E0AE
:1023F0000CE0DFE802F0030507090B0D022508E0F9
:10240000042506E0402504E0082502E0102500E050
:102410002025DFF864B2A04E9842DFF880A2ABF12D
:10242000540B73D1102D31D006DC022D09D0042DB0
:102430000AD0082D2FD111E0202D29D0402D2AD1EE
:1024400007E0FEF70FFA13E06846FEF721FA01985D
:102450000EE003A8FEF79AFA049809E0DBF80010F2
:102460005846890610D50068C0F3C1012AFA01F068
:10247000002811D06168894601EB410181420AD8E8
:10248000B0EB093F07D808E05046F3E78448F1E78E
:102490004FF40040EEE7012733E1102D4FF0000824
:1024A0004ED006DC022D0FD0042D15D0082D04D1FE
:1024B0002DE0202D4AD0402D13D00127794AA0F5D8
:1024C0004071914270D9E6E7FEF7CCF9626A0023C9
:1024D000414636F812200DE06846FEF7D9F901981A
:1024E00003E003A8FEF752FA04980023616A36F865
:1024F00011201946FDF74AFF62680902030241EA0A
:1025000010615008181841EB080115E032E0DBF8C3
:1025100000105846890609D500680023C0F3C101A0
:102520002AFA01F0616A36F8112015E0606A00238A
:1025300036F8102050460FE00023FDF727FFBDE7D7
:10254000606A002336F81020554805E0606A0023D1
:1025500036F810204FF400400021FDF717FF090264
:10256000020241EA10614FEA590010184A4641EB55
:102570000801E1E7E3694FF4004293424DD1082D91
:1025800023D005DC8DB1012D12D0042D06D112E02F
:10259000102D35D0202D3AD0402D11D0012721F01B
:1025A0000F00C1F3420108435AE0FFF739F816E083
:1025B000FFF74CF813E06846FEF76AF901980EE061
:1025C00003A8FEF7E3F9049809E0DBF80010584689
:1025D000890608D50068C0F3C1012AFA01F0616AD2
:1025E00036F8111010E0606A36F81010BAFBF1F0FE
:1025F0004100606801EB5001B1FBF0F081B2CEE721
:10260000606A36F810102648B0FBF1F0F0E7606A17
:1026100036F81000B2FBF0F0EAE7082D4AD00ADCE9
:102620000DB3012D43D0042D7FF44DAF6846FEF766
:102630002FF9019809E0102D52D0202D55D0402DB2
:10264000F2D103A8FEF7A2F90498616A36F81110D6
:10265000B0FBF1F1606801EB5001B1FBF0F080B22A
:102660002168C8604DE01FE0000C0058F369FFCFFF
:10267000FFF4FF1100100140544402580044004090
:1026800000480040004C0040005000400014014051
:1026900000780040007C0040483700080090D003DC
:1026A00000093D00FFFC0F00FEF7BAFFCDE7FEF783
:1026B000CDFFCAE7DBF80020594692060AD5096823
:1026C000C1F3C1022AFA02F1626A36F81220B1FBA4
:1026D000F2F20FE0616A36F81120BAFBF2F209E07B
:1026E000616A36F811200949F1E7616A36F811107C
:1026F000B2FBF1F2616802EB5102B2FBF1F189B277
:10270000C16007B03846BDE8F08F000000093D0009
:102710002DE9F0411E46174688460446069D1CE0FA
:10272000681C1AD025B1FEF735F8801BA84214D9D1
:102730002068016821F4D07101602068816821F06F
:1027400001018160202084F8790084F87A0000205B
:1027500084F878000320BDE8F0812068C16938EA78
:10276000010004D00020B842DAD00020F3E70120B5
:10277000F9E7FEE70FB4054B10B503A9044A029828
:1027800000F028F810BC5DF814FB00008D2900084B
:10279000700000240907090E002804DB00F1E02086
:1027A00080F80014704700F00F0000F1E02080F87E
:1027B000141D704702E008C8121F08C1002AFAD190
:1027C00070477047002001E001C1121F002AFBD1B1
:1027D000704700002DE9FF4F8BB09A460F46054623
:1027E000002606E025280BD052460D9990476D1C17
:1027F000761C28780028F5D10FB03046BDE8F08F60
:102800000024A0460122604900E0044315F8013F7E
:10281000203B02FA03F00842F7D128782E2817D17E
:1028200015F8010F44F004042A280ED06FF02F028F
:102830002878A0F1300109290AD808EB880102EBB9
:10284000410100EB01086D1CF2E757F8048B6D1C89
:10285000287869283ED006DC0028CDD063280BD02C
:10286000642804D136E0732810D075284BD0524626
:102870000D999047761C85E017F8040B8DF8000041
:1028800000208DF80100E946012003E057F8049B81
:102890004FF0FF3061074FF0000401D40AE0641CE0
:1028A00044450DDA8442FADB19F804100029F6D108
:1028B00006E0641C8442FCDB19F804100029F8D1FE
:1028C000264404E019F8010B52460D999047641E06
:1028D000F8D257E001CF4FF00A0B002802DA40424D
:1028E0002D2102E0210504D52B218DF82410012192
:1028F00003E0E10705D02021F7E70DF12009089159
:102900000CE00021F9E701CF4FF00A0BF9E7594637
:10291000FDF76DFD01F1300209F8012D0028F6D117
:10292000ADEB090000F1200B600701D44FF0010866
:10293000D84502DDA8EB0B0000E000208046002413
:1029400006E009A85246005D0D999047641C761C6C
:1029500008988442F5DB04E0302052460D999047F8
:10296000761CB8F10001A8F10108F5DC05E019F8C2
:10297000010B52460D999047761CBBF10001ABF15B
:10298000010BF4DC6D1C34E70928010013B5044881
:1029900001224FF47A736946FFF780F900981CBD55
:1029A000740000241CB5FFF745FBFEF765FE4FF4ED
:1029B0007A71B0FBF1F0FFF727F9FFF7F5F9FDF7B2
:1029C00091FDFFF7C5F90AA0FFF7D4FE17490120D2
:1029D00000234202CDE90001194815A100F084FD51
:1029E000012802D04FF0FF301CBD00F05BFCFEE779
:1029F000D5E2CAC7D2BBB8F65BD2B0BBF05D2D53EF
:102A0000544D3332C8ABCFB5C1D0BFAAB7A2B0E5E1
:102A10002D4672656552544F532DB6AFCCACB4B44D
:102A2000BDA8C8CECEF1210D0A0000000800002488
:102A30004170705461736B4372656174650000008E
:102A40007D0400082DE9F041184E0F460446F56854
:102A50003068001D00F06CFA38B9306890F82C101E
:102A600001208840316981433161601C07D137B151
:102A70003168BDE8F0410E48091D00F091BA306898
:102A80002C44AC424460316805D2B06B091DBDE8EE
:102A9000F04100F06DBA706B091D00F069FAB06A80
:102AA000844200D2B462BDE8F0810000100000242E
:102AB000C40300242DE9F041054600F07DFA2D4EB7
:102AC000B068401CB06030682B4F10B1706930B3F3
:102AD0002BE03560B068012827D1002404EB840086
:102AE00007EB800000F036FA641C202CF6D3234854
:102AF00000F030FA2148143000F02CFA1F4828303A
:102B000000F028FA1D483C3000F024FA1B485030F1
:102B100000F020FA194870631430B06305E03068A3
:102B2000E96AC06A884200D835600121706A401C99
:102B30007062E86A326981401143316100EB8000C4
:102B4000291D07EB800000F02BFA00F075FA706980
:102B500000280CD03068E96AC06A884207D2084968
:102B60004FF080500860BFF34F8FBFF36F8FBDE809
:102B7000F081000010000024F400002474030024FD
:102B800004ED00E070B5124E124D1CE000F0D6FBD3
:102B9000306820B1002400F059FDA4B901E00124FF
:102BA000F9E700F009FAF068C468201D00F0C0F9E8
:102BB000A868401EA8606868401E686000F03CFA83
:102BC000204600F009F868680028DFD170BD0000D9
:102BD000B00300241000002410B50446006B00F080
:102BE0005FFA2046BDE8104000F05ABA10484FF492
:102BF0001041420706D00E49C01D20F00700411ABF
:102C0000C1F510410B4A002301440839C2E9000311
:102C1000103A21F0070111604B600B600B1AC0E9FC
:102C2000001393604FF000405360D0607047000085
:102C3000D80300245C000024074E4FF08054074D59
:102C4000FFF7A0FF30680128FAD92C60BFF34F8F3F
:102C5000BFF36F8FF4E70000F400002404ED00E000
:102C60002DE9F047DDE909840E4682466FF0030145
:102C7000089D01EB82019946206B084420F007076C
:102C8000780705D019A140F22B321FA0FFF772FD83
:102C900000202218315C82F83410315C11B1401CE4
:102CA0001028F6D3002684F84360202D00D31F257A
:102CB000E562201D00F059F904F1180000F055F903
:102CC0002461C5F120006462A061666484F84860F4
:102CD0004A465146384600F015F9B8F1000F206019
:102CE00001D0C8F80040BDE8F08700002E2E5C2E11
:102CF0002E5C4672656552544F535C7372635C740C
:102D000061736B732E6300004572726F723A2573A4
:102D10002C25640D0A00000030B5114900E0114671
:102D20000A688242FBD34B685C18844203D1406836
:102D300018444860084643681C18944209D1084C5E
:102D4000103C2468A24209D052681A4442600A68C2
:102D500012680260814200D0086030BD0460F9E76B
:102D60005C0000240648416B096829B1416BC968C1
:102D7000C9684968816270474FF0FF31FAE7000087
:102D80001000002409484068401C05D008A140F20A
:102D9000091213A0FFF7EEFC502072B680F31188E1
:102DA000BFF34F8FBFF36F8F62B6FEE7640000245E
:102DB0002E2E5C2E2E5C4672656552544F535C700D
:102DC0006F72745C525644535C41524D5F434D37B1
:102DD0005C723070315C706F72742E6300000000A2
:102DE0004572726F723A25732C25640D0A0000003B
:102DF0002DE9F0410026054600F0A0FA324F386870
:102E000008B9FFF7F3FEF86805424FD1002D4DD009
:102E1000083568070BD005F00700C0F1080005442D
:102E2000680704D0BF2229A132A0FFF7A3FC002D20
:102E30003CD07868854239D8234910310846046867
:102E400001E0214604466068A84202D220680028BA
:102E5000F7D13868B846844228D00E6820680860E8
:102E600008366068401B10280ED96719780704D00F
:102E7000EC2216A11FA0FFF77DFC6068401B786064
:102E800038466560FFF748FF61684246D8F804009D
:102E9000401AC8F80400D8F80830984200D2906070
:102EA000D8F80C0001430020C4E9000100F0CEFB7B
:102EB000700705D04FF4967204A10EA0FFF75AFCDC
:102EC0003046BDE8F08100004C0000242E2E5C2E20
:102ED0002E5C4672656552544F535C706F72745C21
:102EE0004D656D4D616E675C686561705F342E6322
:102EF000000000004572726F723A25732C25640D34
:102F00000A000000031F10B54FF080741C601B1FE7
:102F100021F001011960191F044B0B6014390A607C
:102F2000091F44386FF002020A6010BD852D0008A9
:102F3000D0E9013201699A60D0E901235A604A68F8
:102F4000824201D182684A60002202610868401E04
:102F5000086070474FF0FF3200F10801C0E901122C
:102F6000C16001610021016070470021016170476B
:102F700030B50C68621C02D000F1080202E0026960
:102F800004E01A4653681D68A542FAD953684B609D
:102F900099608A60516008610168491C016030BD18
:102FA00042684A6093688B609368596091600861D9
:102FB0000168491C01607047502072B680F3118887
:102FC000BFF34F8FBFF36F8F094962B64868401C4B
:102FD000486001280AD10748006810F0FF0F05D0AB
:102FE00005A140F2A91210A0FFF7C4BB7047000072
:102FF0006400002404ED00E02E2E5C2E2E5C467250
:10300000656552544F535C706F72745C52564453F2
:103010005C41524D5F434D375C723070315C706F74
:1030200072742E63000000004572726F723A25734D
:103030002C25640D0A00000010B5084C606828B902
:103040004FF4D87206A112A0FFF794FB6068401EEF
:10305000606001D180F3118810BD0000640000247D
:103060002E2E5C2E2E5C4672656552544F535C705A
:103070006F72745C525644535C41524D5F434D37FE
:103080005C723070315C706F72742E6300000000EF
:103090004572726F723A25732C25640D0A00000088
:1030A00070B500282AD0164DA0F108046068E968C0
:1030B000084205D14FF4A07212A11CA0FFF75AFBE1
:1030C000206828B10FA140F2411218A0FFF752FB6F
:1030D0006068E968084211D02268002A0ED188434E
:1030E000606000F02BF960686968084468602046F9
:1030F000FFF712FEBDE8704000F0A8BA70BD0000F6
:103100004C0000242E2E5C2E2E5C467265655254B7
:103110004F535C706F72745C4D656D4D616E675C92
:10312000686561705F342E63000000004572726F45
:10313000723A25732C25640D0A00000006484FF4EE
:103140007A710068B0FBF1F14FF0E020491E416157
:1031500007210161704700000000002410B5040041
:1031600012D00E49096B29B10DA140F2CF4213A034
:10317000FFF700FB00F0E2F800212046FFF762FCB9
:1031800000F064FA002807D110494FF08050086021
:10319000BFF34F8FBFF36F8F10BD000010000024EE
:1031A0002E2E5C2E2E5C4672656552544F535C7316
:1031B00072635C7461736B732E6300004572726F8F
:1031C000723A25732C25640D0A00000004ED00E01E
:1031D00070B50446FFF7F0FE234D04B92C68201D9E
:1031E000FFF7A6FE58B9E06A204A00EB800152F8CA
:1031F000211021B901218140286988432861A06AF2
:1032000018B104F11800FFF793FE686A401C686269
:103210002868844207D11648211DFFF7C1FE68685F
:10322000401C686007E0A868401EA8602046FFF7C1
:10323000D3FCFFF797FDFFF7FFFE6869002812D067
:10324000286884420FD1286B28B10AA140F2654258
:103250000FA0FFF78FFA12494FF080500860BFF3BC
:103260004F8FBFF36F8F70BD10000024F400002457
:10327000B00300242E2E5C2E2E5C467265655254DF
:103280004F535C7372635C7461736B732E630000E5
:103290004572726F723A25732C25640D0A00000086
:1032A00004ED00E01CB5164800248022234615A139
:1032B000CDE90040154800F017F901280AD0401C5C
:1032C0001DD102B040F2847211A118A0BDE81040D7
:1032D000FFF750BA502072B680F31188BFF34F8FBA
:1032E000BFF36F8F62B606484FF0FF312C38816212
:1032F00001214161C460BDE81C4000F069B81CBDFB
:103300003C00002449444C4500000000392C0008D2
:103310002E2E5C2E2E5C4672656552544F535C73A4
:1033200072635C7461736B732E6300004572726F1D
:10333000723A25732C25640D0A0000000248016BC7
:10334000491C0163704700001000002470B5134D44
:10335000286B10B10120E86170BD0020E861286988
:103360000F4EB0FA80F0C0F11F0000EB800456F859
:10337000240028B90BA140F6F62211A0FFF7FAF9B4
:1033800006EB840000F108024168496841609142FF
:1033900001D149684160C868286070BD10000024F0
:1033A000F40000242E2E5C2E2E5C4672656552546D
:1033B0004F535C7372635C7461736B732E630000B4
:1033C0004572726F723A25732C25640D0A00000055
:1033D0001CB5254C20780190FF20207020788DF8B6
:1033E00000009DF800009DF8001000F0F0008842F9
:1033F00005D01EA140F2631228A0FFF7BBF99DF88B
:1034000000002A4A00F0500010700720906007E08A
:103410009068401E90609DF8000040008DF800000C
:103420009DF800000006F3D4107A000200F4E0607A
:103430009060019820701E48016841F4700101609D
:10344000016841F070410160FFF778FE0020506094
:10345000FCF74CFF1748016841F040410160FCF760
:1034600035FF00201CBD000000E400E02E2E5C2E85
:103470002E5C4672656552544F535C706F72745C7B
:10348000525644535C41524D5F434D375C7230702D
:10349000315C706F72742E63000000004572726FB1
:1034A000723A25732C25640D0A0000006400002484
:1034B00020ED00E034EF00E0502010B572B680F34C
:1034C0001188BFF34F8FBFF36F8F62B600F046F8DD
:1034D00018B104494FF080500860002080F3118833
:1034E00010BD000004ED00E02DE9FF5F994616468F
:1034F0008A4683469000DDE90E87FFF779FC0500D8
:103500001AD04C20FFF774FC040012D00021256370
:10351000CDE900874B463246CDE902415146584637
:10352000FFF79EFB2046FFF7C5FA012004B0BDE877
:10353000F09F2846FFF7B4FD4FF0FF30F6E700009C
:103540000548416919B1006B18B10020704701208E
:103550007047022070470000100000242DE9F04160
:103560002D4F0026386B40B1B869401CB861F8692E
:1035700000B101263046BDE8F081FD686D1CFD609C
:1035800011D1786B006828B124A140F6D9122AA085
:10359000FFF7F0F8786BB96B7963B863386A401C51
:1035A0003862FFF7DFFBB86ADFF89C80854209D3F9
:1035B000786B006880B1786BC068C46860688542C9
:1035C0000DD2B8623868C06A00EB800158F821005B
:1035D0000128CCD90126CAE74FF0FF30F1E7201DC2
:1035E000FFF7A6FCA06A18B104F11800FFF7A0FCD1
:1035F000E06A01213A6981401143396100EB8001A1
:1036000008EB8100211DFFF7CBFCE06A3968C96A2D
:103610008842CDD30126CBE7100000242E2E5C2E4D
:103620002E5C4672656552544F535C7372635C74D2
:1036300061736B732E6300004572726F723A25736B
:103640002C25640D0A000000F40000242DE9F04749
:103650002B4D00242746286B28B92AA14FF4FD6280
:103660002FA0FFF787F8FFF7A7FC286B401E286301
:10367000286BE8BBA86801262D49C8B3A1F52A79B3
:103680008846D8F80010E9B1D8F80C00C46804F1F5
:103690001800FFF74DFC201DFFF74AFCE06A2A697D
:1036A00006FA00F11143296100EB800109EB81006A
:1036B000211DFFF775FCE06A2968C96A8842E0D3DA
:1036C000EE61DEE70CB1FFF74DFBAC693CB1FFF7F3
:1036D00045FF00B1EE61641EF9D10020A861E869E0
:1036E00030B11449012738070860BFF34F8F00E05D
:1036F00001E0BFF36F8FFFF79FFC3846BDE8F0870E
:10370000100000242E2E5C2E2E5C467265655254ED
:103710004F535C7372635C7461736B732E63000050
:103720004572726F723A25732C25640D0A000000F1
:103730009C03002404ED00E00000000001020304EB
:103740000102030406070809010002000400060044
:1037500008000A000C00100020004000800000015A
:10376000803700080000002474000000B42700081F
:10377000F43700087400002464970000C427000890
:103780000090D0030090D003000000000000000073
:103790000000000000000000000000000000000029
:1037A0000000000000000000000000000000000019
:1037B0000000000000000000000000000000000009
:1037C00000000000000000000000000000000000F9
:1037D00000000000000000000000000000000000E9
:1037E0000000000000000000AAAAAAAA0000000031
:0437F00000000000D5
:040000050800029954
:00000001FF
